:020000040000FA
:100000000C9462000C948A000C948A000C948A0070
:100010000C948A000C948A000C948A000C948A0038
:100020000C948A000C948A000C948A000C94C605E7
:100030000C948A000C948A000C948A000C948A0018
:100040000C9424050C948A000C9494050C946E0571
:100050000C948A000C948A000C948A000C948A00F8
:100060000C948A000C948A000000000024002700F1
:100070002A0000000000250028002B0000000008D6
:10008000000201000003040700000000000000005F
:1000900000000000230026002900040404040404D6
:1000A0000404020202020202030303030303010227
:1000B00004081020408001020408102001020408F6
:1000C0001020820611241FBECFEFD8E0DEBFCDBFC7
:1000D00011E0A0E0B1E0E2EFF7E102C005900D927F
:1000E000AA31B107D9F722E0AAE1B1E001C01D921F
:1000F000AF30B207E1F710E0C2E6D0E004C02197CC
:10010000FE010E94F10BC136D107C9F70E94160704
:100110000C94F70B0C94000080E480937C00809199
:100120007A00806480937A0080917A0086FDFCCF0B
:1001300080917800909179000895CF92DF92EF92AC
:10014000FF92CF93DF93B091FD01A0E08111AB2F1F
:100150008091FE0190E0880F991FAC0140575F4FDE
:10016000C0900302D0900402E0900502F0900602D5
:1001700030E020E0FA01C591D491E881B90190E026
:1001800080E0EB23EA130AC02F5F3F4F6C157D051B
:100190008E059F0578F36FEF7FEFCB01DF91CF9155
:1001A000FF90EF90DF90CF900895833081F028F496
:1001B000813099F08230A9F008958730A9F0883015
:1001C000C9F08430B1F4809180008F7D03C08091AC
:1001D00080008F7780938000089584B58F7784BDE9
:1001E000089584B58F7DFBCF8091B0008F77809389
:1001F000B00008958091B0008F7DF9CF1F93CF9309
:10020000DF93282F30E0F901E458FF4F8491F90182
:10021000E255FF4FD491F901E656FF4FC491CC232C
:10022000A9F0162F81110E94D500EC2FF0E0EE0FFF
:10023000FF1FEE58FF4FA591B4918FB7F894EC9142
:10024000111108C0D095DE23DC938FBFDF91CF91D1
:100250001F910895DE2BF8CFCF93DF9390E0FC0140
:10026000E255FF4F249186569F4FFC0184918823CD
:10027000C9F090E0880F991FFC01E859FF4FA59144
:10028000B491FC01EE58FF4FC591D49161110DC09E
:100290009FB7F8948C91209582238C938881282392
:1002A00028839FBFDF91CF910895623051F49FB7AB
:1002B000F8943C91822F809583238C93E8812E2B98
:1002C000EFCF8FB7F894EC912E2B2C938FBFEACF02
:1002D0003FB7F89480912C0190912D01A0912E01AF
:1002E000B0912F0126B5A89B05C02F3F19F00196AC
:1002F000A11DB11D3FBFBA2FA92F982F8827BC0180
:10030000CD01620F711D811D911D42E0660F771FA7
:10031000881F991F4A95D1F708958F929F92AF92A7
:10032000BF92CF92DF92EF92FF924B015C010E944D
:1003300068016B017C010E9468016C197D098E09BE
:100340009F09683E734081059105A8F321E0821A58
:100350009108A108B10888EEC80E83E0D81EE11C00
:10036000F11C81149104A104B10429F7FF90EF90CE
:10037000DF90CF90BF90AF909F908F900895CF92D5
:10038000DF92EF92FF920F931F93CF93DF93CDB73E
:10039000DEB7C054D1400FB6F894DEBF0FBECDBF5C
:1003A0002FB7F8948091300190913101A0913201E2
:1003B000B09133012FBF4091FF0150910002609135
:1003C0000102709102028C019D01041B150B260B8A
:1003D000370BB901A801403D57406105710590F404
:1003E00080910702C05CDE4F0FB6F894DEBF0FBEEF
:1003F000CDBFDF91CF911F910F91FF90EF90DF90D4
:10040000CF9008958093FF0190930002A093010282
:10041000B09302021092FA011092F9011092F801C1
:100420001092F7011092F60162E08091FB010E94A8
:100430002C0161E070E080E090E00E948D0161E0BD
:100440008091FB010E942C0160E08091FB010E94E1
:10045000FE008091FC018551823020F58BE291E114
:100460000197F1F762E08091FB010E942C018091DD
:10047000080290E08230910538F0880F991F880FAC
:10048000991F05970197F1F7F89480E00E949D006D
:100490006F3F7F4F8F4F9F4F61F410920702789408
:1004A00080E0A0CF64E170E080E090E00E948D01E8
:1004B000D9CF81E00E949D006F3F7F4F8F4F9F4FAC
:1004C00061F38E010F5F1F4F6E018FEBC81A8EEF25
:1004D000D80A780180E00E949D00F7016083718353
:1004E0008283938381E00E949D00F701648375837A
:1004F00086839783F8E0EF0EF11CEC14FD0451F7AE
:10050000789430E020E0F801C080D180E280F38070
:100510004481558166817781FFEFCF16DF06EF06B4
:10052000FF0631F04F3F8FEF58076807780719F43F
:1005300010920702B5CFF90183E0F595E7958A950A
:10054000E1F7EA50FE4F8081880FC416D506E60613
:10055000F70610F180832F5F3F4F085F1F4F28324F
:10056000310589F64091FA012091F6018091F70159
:10057000280F3327331F8091F801280F311D8091F8
:10058000F901820F932F911D99274817190681F6BB
:1005900081E08093070226CF8160DCCFAF92BF92CB
:1005A000CF92DF92EF92FF920F931F93CF93DF933F
:1005B0006C017B018B01040F151FEB015E01AE186E
:1005C000BF08C017D10759F06991D601ED91FC9190
:1005D0000190F081E02DC6010995892B79F7C501BD
:1005E000DF91CF911F910F91FF90EF90DF90CF900F
:1005F000BF90AF900895FC01538D448D252F30E0BE
:10060000842F90E0821B930B541710F0CF9608951F
:1006100001970895FC01918D828D981761F0A28D4C
:10062000AE0FBF2FB11D5D968C91928D9F5F9F7312
:10063000928F90E008958FEF9FEF0895FC01918DC8
:10064000828D981731F0828DE80FF11D858D90E035
:1006500008958FEF9FEF0895FC01918D228D892FD2
:1006600090E0805C9F4F821B91098F7399270895BA
:1006700084E391E00E942C0321E0892B09F420E01F
:10068000822F089580E090E0892B29F00E943803A2
:1006900081110C9400000895FC01A48DA80FB92FBE
:1006A000B11DA35ABF4F2C91848D90E001968F739A
:1006B0009927848FA689B7892C93A089B1898C91B9
:1006C000837080648C93938D848D981306C0028808
:1006D000F389E02D80818F7D80830895EF92FF92D2
:1006E0000F931F93CF93DF93EC0181E0888F9B8D55
:1006F0008C8D98131AC0E889F989808185FF15C00F
:100700009FB7F894EE89FF896083E889F989808131
:100710008370806480839FBF81E090E0DF91CF9100
:100720001F910F91FF90EF900895F62E0B8D10E022
:100730000F5F1F4F0F731127E02E8C8D8E110CC091
:100740000FB607FCFACFE889F989808185FFF5CFDC
:10075000CE010E944C03F1CFEB8DEC0FFD2FF11D6C
:10076000E35AFF4FF0829FB7F8940B8FEA89FB8919
:1007700080818062CFCFCF93DF93EC01888D882377
:10078000B9F0AA89BB89E889F9898C9185FD03C0F4
:10079000808186FD0DC00FB607FCF7CF8C9185FFD9
:1007A000F2CF808185FFEDCFCE010E944C03E9CFCF
:1007B000DF91CF9108958F929F92AF92BF92FF9257
:1007C0000F931F93CF93DF93FC01F0808BE08F1585
:1007D00008F44AC0828108E512E0081B110987FD70
:1007E0001395000F111F000F111F8181C8E8D0E081
:1007F000C81BD10987FDD395CC0FDD1FCC0FDD1FA2
:100800004E010D2E000CAA08BB089801012E000C09
:10081000440B550B281939094A095B09DB010E9471
:10082000E00924EB30E040E050E00E94B609820E7F
:10083000931EA41EB51E8C169D062CF0E801801692
:1008400091060CF4E4012297CC0FDD1F2FB7F8942A
:100850008F2D90E0FC01EE0FFF1FE80FF91FEF5204
:10086000FE4FD283C1832FBFDF91CF911F910F9194
:10087000FF90BF90AF909F908F9008951F93CF935C
:10088000DF93EC01162F88818C3008F04EC061E0B8
:10089000812F0E942C018881282F30E0F901EE0F72
:1008A000FF1FE20FF31FEF52FE4F1F736081607C4A
:1008B000612B608319821A822CE0622F0E94E50B63
:1008C000829FB001112430E020E0AB01420F531FA2
:1008D000FA01EE0FFF1FE40FF51FEF52FE4F90815C
:1008E00096FD16C02F5F3F4F2C30310571F78111F7
:1008F0000FC01092800082E08093810010928500EA
:1009000010928400B19A80916F00826080936F0092
:10091000E8818E2F90E0FC01EE0FFF1FE80FF91F1A
:10092000EF52FE4F8081806480838881DF91CF9178
:100930001F910895FC0101900020E9F73197AF0164
:10094000481B590BBC0184E391E00C94CE028F92BA
:100950009F92AF92BF92CF92DF92EF92FF920F934E
:100960001F93CF93DF93CDB7DEB7A1970FB6F8945F
:10097000DEBF0FBECDBF6C01990FEE08FF08F7FE7A
:1009800041C06DE284E391E00E946E038C01222756
:100990003327A9012C193D094E095F0919A2CE017F
:1009A00081967C019AE0892E912CA12CB12CCA0150
:1009B000B901A50194010E94E809605DF701629305
:1009C0007F01211531054105510589F790E080E04F
:1009D000309719F0CF010E949A04800F911FA196C1
:1009E0000FB6F894DEBF0FBECDBFDF91CF911F9140
:1009F0000F91FF90EF90DF90CF90BF90AF909F90BE
:100A00008F900895A701960119A28E010F5D1F4FC7
:100A10008AE0C82ED12CE12CF12CCA01B901A70122
:100A200096010E94E809605DF80162938F0121152B
:100A300031054105510589F790E080E0309779F262
:100A4000CF010E949A04CBCF1F920F920FB60F9244
:100A500011242F933F938F939F93AF93BF938091D4
:100A6000300190913101A0913201B0913301309168
:100A70002B0123E0230F2D3758F50196A11DB11D41
:100A800020932B018093300190933101A093320188
:100A9000B093330180912C0190912D01A0912E01F2
:100AA000B0912F010196A11DB11D80932C0190934F
:100AB0002D01A0932E01B0932F01BF91AF919F9173
:100AC0008F913F912F910F900FBE0F901F9018950F
:100AD00026E8230F0296A11DB11DD2CF1F920F92BF
:100AE0000FB60F9211242F933F934F935F936F9301
:100AF0007F938F939F93AF93BF93EF93FF9384E381
:100B000091E00E944C03FF91EF91BF91AF919F91B3
:100B10008F917F916F915F914F913F912F910F90A6
:100B20000FBE0F901F9018951F920F920FB60F9245
:100B300011242F938F939F93EF93FF93E0914401A0
:100B4000F09145018081E0914A01F0914B0182FDD5
:100B50001BC0908180914D018F5F8F7320914E015A
:100B6000821741F0E0914D01F0E0EC5CFE4F958F73
:100B700080934D01FF91EF919F918F912F910F9055
:100B80000FBE0F901F9018958081F4CF1F920F9287
:100B90000FB60F9211242F933F934F935F936F9350
:100BA0007F938F939F93AF93BF93CF93DF93EF93F5
:100BB000FF9380911A01C091F501D0E087FF24C016
:100BC000109285001092840080911A018F5F8093AB
:100BD0001A0180911A01082E000C990B8C179D07A1
:100BE00024F480911A018C30C4F18091840090919A
:100BF0008500049680349C4908F47AC08091840072
:100C000090918500049676C080911A01082E000C00
:100C1000990B8C179D07C4F6E0911A018E2FEE0FE9
:100C2000990BFC01EE0FFF1FE80FF91FEF52FE4F6B
:100C3000808186FFC9CFE0911A018E2FEE0F990BAC
:100C4000FC01EE0FFF1FE80FF91FEF52FE4F8081EE
:100C500060E08F730E94FE00B7CF20918400309136
:100C60008500E0911A018E2FEE0F990BFC01EE0F1B
:100C7000FF1FE80FF91FEF52FE4F81819281820F13
:100C8000931F9093890080938800E0911A018E2F22
:100C9000EE0F990BFC01EE0FFF1FE80FF91FEF524B
:100CA000FE4F808186FF11C0E0911A018E2FEE0F5A
:100CB000990BFC01EE0FFF1FE80FF91FEF52FE4FDB
:100CC000808161E08F730E94FE00FF91EF91DF91C0
:100CD000CF91BF91AF919F918F917F916F915F91D4
:100CE0004F913F912F910F900FBE0F901F9018952D
:100CF00080E49CE990938900809388008FEF809333
:100D00001A01E3CF109237011092360188EE93E07A
:100D1000A0E0B0E08093380190933901A0933A01AC
:100D2000B0933B0186E091E09093350180933401CC
:100D300085EC90E0909341018093400184EC90E039
:100D4000909343018093420180EC90E090934501A1
:100D50008093440181EC90E0909347018093460199
:100D600082EC90E0909349018093480186EC90E0FA
:100D700090934B0180934A0110924D0110924E01C5
:100D800010924F01109250018091F5018C3008F0C3
:100D900045C091E0980F9093F50180930C0290E08C
:100DA000FC01EE0FFF1FE80FF91FEF52FE4F88EB1B
:100DB0009BE0928381838091F5018C3098F591E0DE
:100DC000980F9093F5018093090290E0FC01EE0FDB
:100DD000FF1FE80FF91FEF52FE4F88EB9BE0928355
:100DE000818382E08093FB018BE08093FC01E0EB48
:100DF000F0E0E491E093FD01ECE9F0E0E491E093B0
:100E0000FE0180E89EE3A0E0B0E0809303029093AF
:100E10000402A0930502B093060208958FEF809319
:100E20000C02C9CF8FEF80930902DBCF789484B591
:100E3000826084BD84B5816084BD85B5826085BDD6
:100E400085B5816085BD80916E00816080936E0064
:100E50001092810080918100826080938100809156
:100E60008100816080938100809180008160809307
:100E700080008091B10084608093B1008091B000C7
:100E800081608093B00080917A00846080937A00C2
:100E900080917A00826080937A0080917A008160EC
:100EA00080937A0080917A00806880937A00109213
:100EB000C100E0914401F091450182E08083E0911E
:100EC0004001F09141011082E0914201F091430113
:100ED0008FEC808310924C01E0914801F091490120
:100EE00086E08083E0914601F09147018081806136
:100EF0008083E0914601F091470180818860808382
:100F0000E0914601F0914701808180688083E09103
:100F10004601F091470180818F7D808362E080915E
:100F2000FB010E942C012FB7F89480913001909121
:100F30003101A0913201B09133012FBF805D974004
:100F4000A109B1098093FF0190930002A0930102CF
:100F5000B093020287E38093080260E083E00E947E
:100F60002C0161E084E00E942C0161E087E00E9496
:100F70002C0165E070E08CE092E00E943E0466E0A7
:100F800070E089E092E00E943E0470E060E08CE056
:100F900092E00E94DB0370E060E089E092E00E9452
:100FA000DB0360E087E00E94FE0060E084E00E94D6
:100FB000FE0042E3442E512C612C712C52E0852E10
:100FC000912CC1E001E010E063E0262E312C10925C
:100FD0002A011092290110922801109227010E94E3
:100FE0008C0065E070E080E090E00E948D0132E3CB
:100FF000A32EB12CC12CD12C76010E948C00092E7D
:10100000000CAA0BBB0BC80ED91EEA1EFB1E61E02A
:1010100070E080E090E00E948D0181E0A81AB108A4
:1010200061F7C701B601A30192010E94B60930938E
:101030002601209325012F353140ACF51092240173
:1010400010922301EFE7F0E08491E1EBF0E0D4911E
:10105000EDE9F0E0F490F11033C01092010110922C
:10106000000180911B0190911C01019690931C013D
:1010700080931B0103970CF03FC00E94BF0188239F
:1010800009F4BAC08091FC018C3009F42EC108F03B
:1010900044C08B3009F45FC0C12CD12C80ECE82E09
:1010A0008FE7F82E82C09092240180922301C09392
:1010B0002A01C0932901C0932801C0932701C2CF00
:1010C00081110E94D500EF2DF0E0EE0FFF1FE057D9
:1010D000FF4FA591B4918C91D82309F4BECF109302
:1010E00001010093000110921C0110921B0110924B
:1010F000220110922101C1CF1093220100932101FE
:10110000C0932A01C0932901C0932801C0932701ED
:1011100030921C0120921B01B0CF8551823008F023
:10112000BBCFD091F8016D2F70E0762F6627662730
:101130007F778091F901682B90E080E00E94BC0AE3
:101140002DEC3CEC4CEC5DE30E944F0B6B017C0101
:10115000D7FF2BC0EAC06091F80170E090E080E01A
:101160000E94BC0A6B017C01D091F901D7FF0AC033
:10117000AC019B0160E070E080E89FEB0E94190ADF
:101180006B017C01DF706D2F70E090E080E00E94C9
:10119000BE0A2DEC3CEC4CEC5DE30E944F0BA7012A
:1011A00096010E941A0A6B017C01A7019601C701F2
:1011B000B6010E94BC0B81111FC020E030E0A901E4
:1011C000C701B6010E944A0B20E030E040E05FE337
:1011D00087FDB0C0C701B6010E941A0A0E94860AA4
:1011E0007093200160931F016E3171050CF0A7C050
:1011F00010921E0110921D0180912A016AE570E093
:10120000811102C070E060E08CE092E00E94DB039C
:10121000809129016AE570E0811102C070E060E010
:1012200089E092E00E94DB038091270161E0811157
:1012300001C060E087E00E94FE008091280161E02B
:10124000811101C060E084E00E94FE0080912501D0
:10125000909126010E94A70484E191E00E949A04E3
:1012600080912301909124010E94A70484E191E0E0
:101270000E949A0480910001909101010E94A704AC
:1012800084E191E00E949A048091210190912201D1
:101290000E94A70484E191E00E949A0480911F01BA
:1012A000909120010E94A70484E191E00E949A0499
:1012B00080911D0190911E010E94A70486E191E09A
:1012C0000E949A0464EF71E080E090E00E948D013A
:1012D00080E090E0892B09F47ACE0E9438038823BD
:1012E00009F475CE0E94000072CEB090F8016B2D0B
:1012F00070E090E080E00E94BC0A6B017C0160918C
:10130000F9016F7070E090E080E00E94BE0A2DEC61
:101310003CEC4CEC5DE30E944F0BA70196010E9450
:101320001A0A6B017C01B7FE40CFF7FAF094F7F888
:10133000F0943BCFC701B6010E94190A4FCF6E51FE
:1013400071096B30710538F410931E0100931D0173
:10135000C093270151CF90921E0180921D01C0932E
:101360002701C0932A01C093280146CF052E97FB81
:101370001EF400940E94CD0957FD07D00E94E80991
:1013800007FC03D04EF40C94CD0950954095309550
:1013900021953F4F4F4F5F4F0895909580957095E1
:1013A00061957F4F8F4F9F4F08950E940A0AA59F16
:1013B000900DB49F900DA49F800D911D1124089550
:1013C000B7FF0C94D5090E94D509821B930B089591
:1013D000A1E21A2EAA1BBB1BFD010DC0AA1FBB1F39
:1013E000EE1FFF1FA217B307E407F50720F0A21BAB
:1013F000B30BE40BF50B661F771F881F991F1A9418
:1014000069F760957095809590959B01AC01BD0141
:10141000CF010895A29FB001B39FC001A39F700D9B
:10142000811D1124911DB29F700D811D1124911DEC
:1014300008955058BB27AA270E94310A0C94100B1C
:101440000E94020B38F00E94090B20F039F49F3FF4
:1014500019F426F40C94FF0A0EF4E095E7FB0C94C3
:10146000F90AE92F0E94210B58F3BA176207730794
:101470008407950720F079F4A6F50C94430B0EF43D
:10148000E0950B2EBA2FA02D0B01B90190010C0194
:10149000CA01A0011124FF27591B99F0593F50F4AC
:1014A000503E68F11A16F040A22F232F342F442704
:1014B000585FF3CF469537952795A795F0405395FC
:1014C000C9F77EF41F16BA0B620B730B840BBAF0CC
:1014D0009150A1F0FF0FBB1F661F771F881FC2F737
:1014E0000EC0BA0F621F731F841F48F4879577954B
:1014F0006795B795F7959E3F08F0B0CF9395880F05
:1015000008F09927EE0F9795879508950E948D0A08
:101510006894B1110C94440B08950E94290B88F033
:101520009F5798F0B92F9927B751B0F0E1F0660FA7
:10153000771F881F991F1AF0BA95C9F714C0B130E8
:1015400091F00E94430BB1E008950C94430B672F78
:10155000782F8827B85F39F0B93FCCF38695779517
:101560006795B395D9F73EF4909580957095619500
:101570007F4F8F4F9F4F0895E89409C097FB3EF42B
:1015800090958095709561957F4F8F4F9F4F9923D0
:10159000A9F0F92F96E9BB279395F695879577954E
:1015A0006795B795F111F8CFFAF4BB0F11F460FF0E
:1015B0001BC06F5F7F4F8F4F9F4F16C0882311F066
:1015C00096E911C0772321F09EE8872F762F05C07A
:1015D000662371F096E8862F70E060E02AF09A9515
:1015E000660F771F881FDAF7880F9695879597F90A
:1015F000089597F99F6780E870E060E008959FEF95
:1016000080EC089500240A94161617061806090699
:10161000089500240A941216130614060506089568
:10162000092E0394000C11F4882352F0BB0F40F4F0
:10163000BF2B11F460FF04C06F5F7F4F8F4F9F4F30
:10164000089557FD9058440F551F59F05F3F71F0B2
:101650004795880F97FB991F61F09F3F79F0879519
:101660000895121613061406551FF2CF4695F1DFA2
:1016700008C0161617061806991FF1CF8695710532
:10168000610508940895E894BB2766277727CB0166
:1016900097F908950E94C10B08F48FEF08950E94F6
:1016A000620B0C94100B0E94020B38F00E94090B85
:1016B00020F0952311F00C94F90A0C94FF0A1124E0
:1016C0000C94440B0E94210B70F3959FC1F3950F6E
:1016D00050E0551F629FF001729FBB27F00DB11DB6
:1016E000639FAA27F00DB11DAA1F649F6627B00D46
:1016F000A11D661F829F2227B00DA11D621F739F2F
:10170000B00DA11D621F839FA00D611D221F749F3C
:101710003327A00D611D231F849F600D211D822F83
:10172000762F6A2F11249F5750409AF0F1F08823AA
:101730004AF0EE0FFF1FBB1F661F771F881F9150D7
:101740005040A9F79E3F510580F00C94F90A0C9483
:10175000440B5F3FE4F3983ED4F386957795679505
:10176000B795F795E7959F5FC1F7FE2B880F911D01
:101770009695879597F908950E94C10B880B990B50
:101780000895990F0008550FAA0BE0E8FEEF161612
:101790001706E807F907C0F012161306E407F50765
:1017A00098F0621B730B840B950B39F40A2661F0D9
:1017B000232B242B252B21F408950A2609F4A1407C
:1017C000A6958FEF811D811D0895991B79E004C0B6
:1017D000991F961708F0961B881F7A95C9F7809570
:1017E0000895EE0FFF1F0590F491E02D0994F894F1
:1017F000FFCF0100000000006E03CE02FB02BB031E
:0C1800002C030A031E032C000D0A00003C
:107E0000112484B714BE81FFF0D085E080938100F7
:107E100082E08093C00088E18093C10086E0809377
:107E2000C20080E18093C4008EE0C9D0259A86E02C
:107E300020E33CEF91E0309385002093840096BBD3
:107E4000B09BFECF1D9AA8958150A9F7CC24DD24C4
:107E500088248394B5E0AB2EA1E19A2EF3E0BF2EE7
:107E6000A2D0813461F49FD0082FAFD0023811F036
:107E7000013811F484E001C083E08DD089C08234E0
:107E800011F484E103C0853419F485E0A6D080C0E4
:107E9000853579F488D0E82EFF2485D0082F10E0AE
:107EA000102F00270E291F29000F111F8ED06801E7
:107EB0006FC0863521F484E090D080E0DECF843638
:107EC00009F040C070D06FD0082F6DD080E0C81688
:107ED00080E7D80618F4F601B7BEE895C0E0D1E017
:107EE00062D089930C17E1F7F0E0CF16F0E7DF06D8
:107EF00018F0F601B7BEE89568D007B600FCFDCFD4
:107F0000A601A0E0B1E02C9130E011968C91119780
:107F100090E0982F8827822B932B1296FA010C0160
:107F200087BEE89511244E5F5F4FF1E0A038BF0790
:107F300051F7F601A7BEE89507B600FCFDCF97BE46
:107F4000E89526C08437B1F42ED02DD0F82E2BD052
:107F50003CD0F601EF2C8F010F5F1F4F84911BD097
:107F6000EA94F801C1F70894C11CD11CFA94CF0C13
:107F7000D11C0EC0853739F428D08EE10CD085E9AC
:107F80000AD08FE07ACF813511F488E018D01DD067
:107F900080E101D065CF982F8091C00085FFFCCF94
:107FA0009093C60008958091C00087FFFCCF809118
:107FB000C00084FD01C0A8958091C6000895E0E648
:107FC000F0E098E1908380830895EDDF803219F02E
:107FD00088E0F5DFFFCF84E1DECF1F93182FE3DFCA
:107FE0001150E9F7F2DF1F91089580E0E8DFEE27F6
:047FF000FF270994CA
:027FFE00040479
:00000001FF
